:020000040800F2
:1000000090070020D9010008CD2B0008A92700087F
:10001000C92B000891160008E12B00080000000021
:10002000000000000000000000000000D52B0008C8
:100030009516000800000000D12B0008D92B0008FD
:10004000F3010008F3010008F3010008F3010008C0
:10005000F3010008F3010008F3010008F3010008B0
:10006000F3010008F3010008F3010008F3010008A0
:10007000F3010008F3010008F3010008F301000890
:10008000F3010008F3010008F3010008F301000880
:10009000F3010008F3010008F3010008F301000870
:1000A000F3010008F3010008F3010008F301000860
:1000B000F3010008F3010008F3010008F301000850
:1000C000F3010008F3010008F3010008F301000840
:1000D000F3010008F3010008F3010008F301000830
:1000E000F3010008F3010008F301000800F002F832
:1000F00000F063F814A696E8000CB244B344DA4565
:1001000001D100F05AF8BAE80F000FA696E83000C7
:10011000A5EB040504EB0607AAEB0704A7F101070A
:100120004FEA15154FEA3414A4F10104AC4201D38F
:1001300000F043F813F0010F18BFFB1A43F001035E
:1001400000F001F8DBE7184798410000B8410000D3
:10015000103A24BF78C878C1FAD8520724BF30C8F3
:1001600030C144BF04680C60704700007047000055
:100170000023002400250026103A28BF78C1FBD8B0
:10018000520728BF30C148BF0B607047662903F093
:10019000C787002070471FB500F02AFC040000202C
:1001A000002103F013FD401C60600020002103F0DB
:1001B000F7FCE0601FBD10B510BD00F063FD1146F7
:1001C000FFF7E9FF02F06EFD01F006F803B4FFF758
:1001D000F2FF03BC01F046FA09488047094800478E
:1001E000FEE7FEE7FEE7FEE7FEE7FEE7FEE7FEE7E7
:1001F000FEE7FEE704480549054A064B7047000044
:10020000DD2B0008ED000008900100209007002081
:1002100090030020900300200FB41CB5074B06AAE2
:100220007B4469460090059800F04FFB002069462A
:1002300000F05EFB1CBC5DF814FB0000CD06000066
:100240002DE9F0474FF0000A89460446C0F820A087
:100250002046E1688847002876D0252806D0D4E9D2
:1002600001219047206A401C2062F1E7E1682046A6
:1002700000258847C4F81CA006460027C4F818A02B
:100280002A2E09D0304603F008FC38B304EB870867
:10029000303EC8F8186019E059F8041B204604EBFA
:1002A00087029161E1688847012F064618D1E0690D
:1002B000002820DA25F020051DE0D8F8180000EB12
:1002C000800006EB40003038C8F818002046E1688E
:1002D0008847064603F0E1FB0028EED1012F0AD043
:1002E0002E2E08D12046E16888477F1C0646022F43
:1002F00045F02005C4DBA069002803DA404245F040
:100300000105A061E80701D025F01005B6B1A6F1FE
:100310004100192802D8203645F400654A46314686
:10032000204625604D46FFF731FF58B1012806D021
:10033000ED1D25F0070000F1080989E704E005F14B
:10034000040985E730468AE7206ABDE8F0870000A7
:10035000014A00F02BBB000000000020401ECAB282
:1003600010F8011F8A4202D00029F9D100207047FD
:1003700040EA0103024630B59B0710D14FF001342B
:1003800000E008C208C91D1B9D4315EAC41FF8D030
:1003900013F0FF0102F8011B0DD01B0AF8E711F85A
:1003A000013B002B02F8013B05D011F8013B002B6B
:1003B00002F8013BF3D130BD4FF0000200B5134607
:1003C00094469646203922BFA0E80C50A0E80C5075
:1003D000B1F12001BFF4F7AF090728BFA0E80C5026
:1003E00048BF0CC05DF804EB890028BF40F8042B1F
:1003F00008BF704748BF20F8022B11F0804F18BF8C
:1004000000F8012B704700004FF0013C50F8042B1E
:1004100051F8043B9A4221D1A2EB0C03934313EA17
:10042000CC1317D150F8042B51F8043B9A4215D144
:10043000A2EB0C03934313EACC130BD150F8042B1B
:1004400051F8043B9A4209D1A2EB0C03934313EAFF
:10045000CC13DBD04FF00000704700BFD01A01BAB8
:10046000B1FA81F101F0180122FA01F0CB40DBB2C0
:10047000C0B2C01AC1F120012CFA01F3D11A914384
:1004800011EAC311E6D1704770477047704710B545
:1004900000F0B2FA006810BD10B5044600F0ACFAE6
:1004A000046010BD2DE9FF4F0C461E464FF0FF378C
:1004B0008BB0D2E90001DDF860800A908A46C1F372
:1004C0000A5505B93D46002108464FF00000BAF133
:1004D000000F00F4400005DA00EB80004FF440010B
:1004E00001EA50004FEA9059B9F1010F00DDB94619
:1004F0000A9850EA4A000ED044F61050A5F2FF3593
:1005000045432F14B8F1000F1ED07542291E1EDD81
:10051000C9F100021CE0B8F1010F4FF0000001D05A
:10052000302103E0F24305E02154401CB042FBDBE4
:1005300030460022002121540B99C1F80880C1E9FE
:1005400000200FB0BDE8F08FBD1B6D1CDEE74A46F2
:1005500000DA694206A800F001FB06AB93E8070049
:1005600003AB83E8070050460A9902F0CDFD8DE801
:100570000700A0F500501F3800900398002D0ADDF9
:1005800042F21F014A460844002303A9039068462B
:1005900003F078F809E0A0F500504A461F38002320
:1005A00003A90390684603F097F88DE8070000045C
:1005B000000C03D04FF0FF30410800E01046B8F1C6
:1005C000000F03D00022009215461EE0751E05D4D0
:1005D00000F016FA303262556D1EF9D5B34601228D
:1005E000084302D000227F1C04E02078302801D18B
:1005F00000227F1E002A099784D01DE0112D07DA02
:1006000000F0FEF9303262556D1C50EA0102F5D15E
:10061000084302D00098C8B10EE00021681E05E032
:10062000235C625C63542254401E491C8142F7DB08
:10063000AB46A81B401E0990002004F80B000B9845
:10064000099AC0F80880C0E9002B7AE711264FF01C
:10065000000857E72DE9F04F88460446D21D22F0E6
:10066000070191B0D1E90001CDE90A0103F080F959
:1006700002460B98C00F01D02D2007E020688107AB
:1006800001D52B2002E0202101EAC000032A0990B5
:1006900001D0072A05DB03464146204600F0FEF95B
:1006A0000BE12078800601D5E06900E00620B8F172
:1006B000650F814606D0B8F1660F18D0B8F1670F04
:1006C00070D131E00020B9F1110F009001DB11234E
:1006D00001E009F101030AAA01A90CA8FFF7E2FE53
:1006E000DDE90C70002609F10105834647E0012091
:1006F0004B4600904FF000470AAA01A90CA8FFF74B
:10070000D1FEDDE90DB00C995D46002610B909F166
:1007100001000D18B9EB050003D4C0F1FF3609F153
:100720000105A5EB09002BE0B9F1010F01DA4FF04B
:1007300001090020B9F1110F0090484601DD112395
:1007400000E003460AAA01A90CA8FFF7ABFEDDE909
:100750000C704D4600268346207800070AD4AB452E
:1007600000DA5D4601A8012D04DD411911F8011CD4
:10077000302907D04F4502DA17F1040F04DA0120BF
:1007800082460FE06D1EEEE7002F02DCED1B3E44BB
:1007900003E0781CA84200DD7D1CB81B00F1010AB3
:1007A0004FF000472078000703D4AA4501DB4FF043
:1007B000FF3A0021B7F1004F0DF143088DF84310C7
:1007C00024D002202B23002F01DA7F422D230A217F
:1007D000021EA0F1010000DC5FB197FBF1FC97FB6A
:1007E000F1F201FB1C7C17460CF1300C08F801CD2E
:1007F000EEE7A8F1010003702188090501D5452124
:1008000000E06521A0F1010800F8011C09980FA97A
:10081000A1EB0807FF1D00B10120411901EBEA70AF
:10082000A1693844081A401EA0612078C00602D48D
:100830002046AFF30080099828B1D4E90121904700
:10084000206A401C20622078C00622D52046AFF3E3
:1008500000801EE0002E04DBB34502DD01A8805DB0
:1008600000E03020D4E901219047206A401C20623A
:10087000761CAAF101005FEA000A0AD100F0B8F87C
:10088000C0680168405CD4E901219047206A401C9F
:100890002062281EA5F10105DCDC07E0D4E9012176
:1008A00018F8010B9047206A401C2062381EA7F1FF
:1008B0000107F3DC2046AFF30080032011B041E6CE
:1008C00001694A1C02610878704700B58FB0CDE914
:1008D00001310021059105497944CDE90310114604
:1008E0006846FFF7ADFC0FB000BD0000E5FFFFFF5D
:1008F0000A6802F8010B0A60704700000FB40B0091
:1009000010B54FF000048AB00FA900910E99CC6089
:10091000234C7C44234A7A44CDE9064200D0042388
:100920006FF00042CDE901321F4A7A446B460892CB
:100930000246002003F056FC0AB010BC5DF814FB20
:10094000F0B507464FF0FF301E4615460C463B46B5
:1009500085B06A460091CDE901013146002004903E
:1009600004A8FFF7CBFF04990346601825B109B12D
:10097000024600E022462A6000290ED0002B02DD4C
:100980000099814209D03B466A463146001B0094DB
:10099000CDE9010404A8FFF7B1FF05B0F0BD0000E8
:1009A00007020000210200005D0100002DE9F04176
:1009B00015460E46040002D12C6804B90BA420464B
:1009C00000F04EF90444207870B12746314638468D
:1009D00000F036F90444207810B1002004F8010B2F
:1009E00038462C60BDE8F0810027F9E700000000E0
:1009F0000048704730000020004870471000002079
:100A000030B5B0F10A0271F100034FEA900E4EEAE0
:100A1000817EB0EB0E0061EB91014FEA101E4EEAB1
:100A2000017E10EB0E0041EB11114FEA102E4EEA41
:100A3000016E10EB0E0041EB11214FEA104E4EEA11
:100A4000014E10EB0E0041EB1141401841F1000145
:100A50004FEAD00040EA41704FEAD1014FEA8104E9
:100A600044EA907410EB800544EB01046D1944EBEB
:100A70000404521BA3414FF0000348BF0A3200D5C3
:100A800030BD401C41F1000130BD10B5044600F0FE
:100A90001FF90068005D00F0010010BD2DE9F04174
:100AA0001F46044603260168072A01F4006004DBA0
:100AB00008B116A505E016A503E008B115A500E0EC
:100AC00015A521F010002060A069C01EA0610FB123
:100AD000401EA0612046AFF300804FB1D4E9012150
:100AE00038469047206A401C2062C01C206206E005
:100AF000206AFAE7D4E9012115F8010B9047761E28
:100B0000F8D22046AFF30080BDE8F0814E414E00A0
:100B10006E616E00494E4600696E6600426842B1E1
:100B2000016811F8013B23B1521EC0E900121846BA
:100B300070470121C160881E704742685AB1C3687E
:100B4000016843B983688B4205D0491E521CC0E935
:100B50000012002070474FF0FF3070472DE9F0473A
:100B6000814616468AB0354878440DC88DE80D0098
:100B700032487844801C03AC0DC884E80D0041F66F
:100B80009B300844372190FBF1F290FBF1F5A5F181
:100B9000800501FB12041B3C02D56442012000E0E9
:100BA0000020DFF898A080460027FA44AAF1BE0A88
:100BB0000EE0E0070AD03246684607EB4701012302
:100BC0000AEB810102F088FD8DE8070064107F1CAC
:100BD000002CEED1194F7F44AE3F19E0E80715D045
:100BE00007EB04100DF1180A90E80E008AE80E00D9
:100BF000C068F04201D1981908903246012306A935
:100C000003A802F069FD03AB83E807006D10641CC4
:100C1000002DE3D14FF0010332466946B8F1000FD1
:100C200003A802D002F02EFD01E002F055FDC9E953
:100C30000001C9F808200AB0BDE8F087303700008D
:100C400030B503461D781DB10A4603E0AC4201D120
:100C5000181A30BD12F8014B002CF7D15B1CF1E7DC
:100C600030B503461D783DB10A4612F8014B1CB160
:100C7000AC42FAD15B1CF5E7181A30BD004870474A
:100C8000100000207546FFF7F9FFAE4605006946E3
:100C9000534620F00700854618B020B5FFF7AAFAA2
:100CA000BDE820404FF000064FF000074FF000086D
:100CB0004FF0000BAC46ACE8C009ACE8C009ACE8AA
:100CC000C009ACE8C00921F007018D46704700005B
:100CD00010B5FFF78DFE001D10BD00BFF12E000006
:100CE0002DE9FF4F06468BB00878FF2806D0491C37
:100CF0002D2805D000244FF0000908E000200CE06A
:100D00000124F8E709EB8903491C00EB4309087843
:100D1000FF28F7D114B1C9F10000814610780025F1
:100D20002C46AA4629462D2801D02B2804D1521C36
:100D30002D2813D0002082468B461078FF280FD034
:100D40004FF0000C0A21521CA5FB017804FB018125
:100D500005FB0C11C5194BEB0104EEE70120EAE796
:100D6000002108464FF00000BAF1000F02D000EB5E
:100D700080004008C0F38157012F01DD4FF0FF379D
:100D80000E9955EA040009EB01080BD04FF0020957
:100D900018F5FA7F16DA4FEACA70002F706008DD86
:100DA000012007E04FEACA70C6E900B00FB0BDE805
:100DB000F08F00203060FFF71FFEC0F80090182170
:100DC000084616E0B8F5FA7F18DD002F02DAF7487A
:100DD000784401E0F6487844D0E90010C6E90010F4
:100DE00040EACA707060FFF707FEC0F80090142157
:100DF00008460FB0BDE8F04F03F08FB90021084658
:100E00004FF00000B8F10001099002DAC7F10002CA
:100E100000E03A4601DAC8F1000106A8FFF79EFE9D
:100E200006AB93E8070003AB83E8070044F23E00FB
:100E30005BEA04010090584604D144F21E012C469E
:100E40005D460091210C0904014306D10099240458
:100E500044EA15442D041039009104F07F41014308
:100E600006D10099240244EA15642D020839009144
:100E700004F07041014306D10099240144EA15743D
:100E80002D01091F009104F04041014306D1009952
:100E9000A40044EA9574AD00891E009104F000415D
:100EA000084304D100986D196441401E00904FF032
:100EB00001033A466846B8F1000FCDE9014503A9A0
:100EC00002DD02F01EFC01E002F0F1FBBAF1000FBE
:100ED00004460D4601D084F00044002108464FF03E
:100EE0000000099940F2FF77484010F00C0F07D13D
:100EF00024F00040284303D0C4F30A50B84212D172
:100F0000FFF77AFDC0F80090C4F30A50B8420AD146
:100F1000A8487844D0E90010C6E9001004F0004168
:100F20000843706042E7C6E900543FE72DE9FF4FF0
:100F30001F464FF0000A4FF0FF38454691B0D7E901
:100F40000146CDF83CA0FFF753FDC0680168405C46
:100F50001090B96912986D1C8847396A8146884794
:100F60000028F6D1B9F1FF3F0AD0002E24F4D06456
:100F700011DDB9F12B0F08D0B9F12D0F0BD102E023
:100F8000404615B013E744F48064B96912986D1CAB
:100F90008847761E8146600504A901D52D2000E012
:100FA0002B20002E01F1010B0DF130088DF81000FF
:100FB0003FDDB9F1690F08D0B9F1490F05D0B9F19A
:100FC0006E0F02D0B9F14E0F1CD13B4601A800951F
:100FD00080E85002DDE912126FF0020003F006F91A
:100FE000C11CCED10EE0B96912986D1C88478146AC
:100FF0001398761E44F4007405600F98401C002E70
:101000000F9016DDB9F1300FEDD0B9F1780F02D0A5
:10101000B9F1580F0DD10F9801280AD13B46CDE9FF
:101020000054DDE91212001F029603F0DDF8C11C26
:10103000A7D1109989453ED144F0800406E0139968
:10104000681CAAF1010A44F400740860B9696D1CB7
:101050001298761E884730288146F0D02BE01099F0
:10106000894505D1200603D4761E44F0800418E09B
:10107000484602F012FD08B3761E0DF12302934597
:10108000A9F1300044F4007406D20BF8010B2006DD
:1010900007D5AAF1010003E0200602D40AF10100FD
:1010A0008246A00502D51399681C0860B969129898
:1010B0006D1C88478146002ED1DC53E0002E51DDA7
:1010C000B9F1650F02D0B9F1450F4BD1A00549D553
:1010D000B9696D1C1298761E24F440748847002E5E
:1010E00081460CDD2B2804D0B9F12D0F07D144F433
:1010F0008074B96912986D1C8847761E8146E00598
:1011000001D52D2100E02B2108F8011BCDF800802E
:1011100021E0761E0DF13901884544F400740CD2AB
:10112000A9F1300010F0FF0088F8000002D100990A
:10113000884509D908F1010806E0E00501D51E48F7
:1011400001E042F20F708246B96912986D1C88471F
:10115000814613980560002E04DD484602F09DFC90
:101160000028D6D1F96912988847FF2053468BF89A
:10117000000088F8000000200A900B9004AA0CA937
:101180000AA8FFF7ADFDA00502D46FF00100F8E654
:1011900014F0240F12D0E0071CD13868DDE90A12E0
:1011A000031D3B600068C0E9001213E03435000005
:1011B00026350000EA330000F1D8FFFF0AA968468F
:1011C00002F0FAFBE00705D13868009A011D39608A
:1011D000006802602846D4E610B50446AFF30080EC
:1011E0002046BDE81040FEF7F1BFB2F120030AD55A
:1011F000C2F1200301FA02F120FA03F341EA0301EC
:1012000000FA02F0704700FA03F14FF00000704757
:101210002DE9FF4F1F464FF03C0987B04FF00042C9
:10122000DDE9141001F10108DDF858A002EA405090
:101230000390002005908346054604460490B96952
:10124000461E08988847AAF1010A0290BAF1000FD9
:101250003BDD02982E2815D0102100F009FA002855
:101260002EDB4FF0010B0599014317D0B9F1000FA8
:101270000BDB4A46C117FFF7B8FF05430C43A9F142
:10128000040905E0012004900BE008B145F00105D8
:1012900001200590049820B9361D02E0049800B1A1
:1012A000361FB969089808F101088847BBF1000F9B
:1012B000AAF1010A0290C9D00999C1F80080C5E7D6
:1012C0000298702808D0502806D0F96908988847F5
:1012D000BBF1000F14D04FE0002002900120BBF1C1
:1012E000000F049009D0B969089808F101088847EF
:1012F000AAF10109B9F1000F07DCF96908988847DC
:101300006FF001000BB0BDE8F08F2B2804D02D2822
:101310000CD14FF0FF300490B969089808F101082A
:101320008847A9F10109B9F1000FE6DD411CE4D0BD
:101330000A2100F09DF90028DFDB029908F101087D
:1013400001EB810100EB41000290B96908988847E0
:101350000A2100F08DF9099AA9F10109B9F1000FEC
:10136000C2F8008001DD0028E7DAF96908988847AB
:101370000499029800FB016655EA040004D004F0C9
:101380004041090002D006E0039898E0A40044EA36
:101390009574AD00B61E04F00041080002D16D192D
:1013A0006441761E159810F0240F03D04FF00B09FE
:1013B0005C4803E04FF028096FF07D0082465645F7
:1013C00007DAAAEB06018944B9F1410F01DD4FF0BC
:1013D000410901200021A9F10102FFF706FF0246A1
:1013E00028400B462140084301D0012100E00021A4
:1013F000501E029143F1FF3128402140084301D0A3
:10140000012000E000200299834651EA0B014FD0F1
:10141000002108464FF00000039900F4400039B164
:1014200000EB80004FF4400100EBD07001EA600057
:101430008015012802DD4FF0FF3000E013D0401C82
:1014400036D0029860B3BBF1000F0CD14A460120A0
:101450000021FFF7CAFE28402140084301D00120A7
:1014600000E00020E0B101204A460021FFF7BDFE68
:10147000034640190A4661412D1A8C4111D3B9F136
:10148000400F09DD159810F0240F02D0AAF13406A0
:1014900003E0AAF1170600E0761C00254FF0004497
:1014A00006E05B1E42F1FF3220EA030521EA020456
:1014B000CAF10100B04206DA1B49039808430190C3
:1014C000002000900EE0039AC4F3D321E80A0A43F7
:1014D000164940EA44500A433146CDE900026846C5
:1014E00002F0D0FA159810F0240F0BD01598C00711
:1014F00015D13868DDE90012031D3B600068C0E9C2
:1015000000120CE002A8694602F056FA1598C007CE
:1015100005D13868029A011D3960006802604046B2
:10152000F0E6000002FCFFFF0000F07F0000F03F4B
:101530002DE9FF4F92461D4685B04FF00041DDE991
:10154000124BDDE914727F1E01EA4B50414940F015
:10155000FF4940EA0108002122F0200049280491B7
:1015600002D04E2828D04CE03BA0012607C88DE8C9
:101570000700A9690698641C88477F1E014606D4A7
:101580001DF8060018B121F0200181420BD0E96955
:1015900006988847032E34D0082E32D06FF0010011
:1015A00009B0BDE8F08F761C032E01D0082EE0D1E3
:1015B000601CCAF80000DCE7A9690698641C88472B
:1015C0007F1E2AD420F02000412826D1A969069840
:1015D000641C88477F1E20D420F020004E281CD198
:1015E000A9690698641C88477F1E48F4002849F4BE
:1015F0008009CAF8004001D4282806D0E969069875
:1016000088475FEACB7012D022E0A9690698641C73
:1016100088477F1E01D4002803DAE96906988847C5
:10162000BCE72928F1D1641CCAF80040E9E71BF0A7
:10163000240F07D028680499031D2B600068C0E9B7
:10164000001805E02868021D2A600068C0F80090B4
:101650002046A5E70000F07F494E46494E495459BF
:101660000000000001491820ABBEFEE72600020082
:101670003A2800D2303820F02002412A01D3A2F1CA
:101680003700884201D34FF0FF30704770470000A9
:10169000FEE7000070470000B0B5044600F01EF9F8
:1016A000054640F20400C2F200000078611C18BF39
:1016B000044400BF00F012F9401BA042FAD3B0BDB1
:1016C0002DE9F04F82B00E68002E00F0FD8041F24F
:1016D0000042C4F20102042340F2004E904208BFCF
:1016E00003234FF6FF7CC4F2010E00930024012374
:1016F000C1F2100C4FF0000A4FF000094BE000BFA0
:1017000041F20002C4F20102009F904208BF02278A
:1017100004F00C030F229A402BEA020207FA03F3AB
:101720004FEA9A051A4346F825204E6840F20C45C8
:10173000F202DEF8082054BF22EA080242EA080258
:10174000C4F20105CEF808202A68B30254BF22EA89
:10175000080242EA08022A60B303DEF8042054BFFC
:1017600022EA080242EA0802F303CEF80420DEF877
:1017700000204FF0010354BF22EA080242EA0802A7
:10178000CEF800200E680AF1010A36FA0AF204F1D6
:10179000040400F0998003FA0AFB16EA0B08F1D062
:1017A0004E68664512DC122E56D8DFE806F0350B7F
:1017B0004D495555555555555555555555555545FD
:1017C000510000BFD1F80C9046E000BF4FF6FF7209
:1017D000C1F2210296420FDC0022C1F211029642B0
:1017E0001AD00022C1F21202964215D00022C1F294
:1017F0002102964210D02FE00022C1F2220296422E
:101800000AD00022C1F23102964205D00022C1F274
:101810003202964220D100BF8A684AB1012A14BF21
:10182000C0F814B0C0F810B04FF0080914E000BFC1
:101830004FF0040910E000BFCA6802F104090BE090
:101840004FF0000908E000BFCA6802F1080903E090
:10185000CA6802F10C0900BF02462646B8F5807F2F
:1018600024BF0432203E17680F25B54027EA05053E
:1018700009FA06F635431560CA79D2067FF582AFBC
:1018800041F21803C4F202031A68AEF57E7642F004
:1018900001021A601A6802F001020192019A2AF00C
:1018A000030256F802B040F60002C4F20102904270
:1018B00008D040F60042C4F2010290427FF420AF0B
:1018C000012725E7002723E702B0BDE8F08F0000DD
:1018D000002A08BF090401617047000040F28C1023
:1018E000C2F2000000687047002804BF0120704762
:1018F000F0B581B0044690F83D0028B9002084F886
:101900003C00204600F090F9242084F83D00206837
:10191000016821F001010160016841F400410160AA
:10192000016821F40041016000F036FB636848F271
:10193000A16CC0F2010C40F60011C0F23D016345FC
:101940003CBF48F28041C0F21E01884202D2012011
:1019500001B0F0BD4DF68361C4F21B31A0FB011252
:101960002168970CD1F804E04FF496762EF03F05ED
:1019700045EA92454D60774348F638160D6AC0F245
:101980004106A7FB067625F03F07634538BF960C56
:10199000721C3A430A62CA6948F2A0664CF6FF77A5
:1019A000C0F20106B34222EA07020BD801385B00FD
:1019B000B0FBF3F001306FF31F30042898BF042010
:1019C0001BE000BFA768013857B119277B43B0FB64
:1019D000F3F001306FF31F3070B100F5804007E085
:1019E00003EB4303B0FBF3F001306FF31F3018B18A
:1019F00000F5004001E000BF01201043C861086805
:101A0000D4E9072320F0C000104318430860886819
:101A100048F2FF3204F10C0790438CCF1843104377
:101A2000A6698860C86820F0FF0038433043C8606A
:101A3000086840F00100086000202021206484F83C
:101A40003D10206384F83E0001B0F0BD2DE9F04365
:101A500083B01E46174689460446FFF73FFF94F8B9
:101A60003D10202924D10546206800BF81698907DF
:101A70001AD5FFF733FF411B20681A29F6D3816975
:101A80008907F3D500202021206384F83D1084F8D5
:101A90003E00216C41F02001216484F83C000220CA
:101AA00003B0BDE8F08300BF94F83C10012903D1D6
:101AB000022003B0BDE8F083012184F83C100168E6
:101AC000C90703D1016841F001010160016840F2DA
:101AD000020821F400610160212184F83D101021E9
:101AE00084F83E100021216467626685618DC0F232
:101AF00001082185A8F10211E162E16A0A9E11F54F
:101B0000803F18BF01291DD1016841F48071016037
:101B100020464FF0011100223346009500F0A4FE4C
:101B200050B120680068C00544BF4FF400702064C5
:101B3000012003B0BDE8F0832069B0F5804F07D1E4
:101B4000FE2015E00829DFD0216B1229DCD0DFE769
:101B5000062000EAD9102168F030086108F106017A
:101B6000204632462B4600F065FF0028E0D1FF20DA
:101B7000216800EA090008612046414632462B46AA
:101B800000F058FF0028D3D100200290206841695E
:101B9000029180690290029806E000BF204631461B
:101BA0002A4600F003FE18BB208D68B3204631465C
:101BB0002A4600F0ABFFD8B9606A2168024612F8E5
:101BC000013B0B616262628D013A6285228D531E78
:101BD00023854F697F07E1D51B04DFD043780230AE
:101BE0000B616062608D01386085901E2085D5E7AD
:101BF000206C04289CD12068016841F400710160C8
:101C0000012003B0BDE8F0832068016841F4007151
:101C10000160202084F83D00002084F83E0084F814
:101C20003C0003B0BDE8F08310B586B0016845F212
:101C30000040C4F2000081424FF00001CDE90411E0
:101C4000CDE9021102D006B010BD00BF41F2180468
:101C5000C4F20204216800F5384041F00801216017
:101C6000216801F0080101910199C021029112211E
:101C700003910321059102A9FFF722FD606840F45A
:101C800000106060606800F400100190019806B0D8
:101C900010BD000040F2040040F28C11C2F20000BE
:101CA000C2F2000100780A68104408607047000022
:101CB00080B542F20000C4F20200016841F0100158
:101CC0000160032000F07AF80F2000F005F800F022
:101CD00027F8002080BD000070B540F20406C2F273
:101CE000000640F20C013278C2F200014FF47A7320
:101CF0000968B3FBF2F20446B1FBF2F1084600F0CA
:101D000073FB0F2C4FF0010508D838B94FF0FF30A6
:101D100021460022002500F025F87460284670BD99
:101D200082B041F21800C4F202000168022241F0C0
:101D300001010160016801F001010191019941680F
:101D400041F080514160406800F080500090009860
:101D50000420C4F20100016862F31A61016002B05C
:101D60007047000010B54EF60C5CCEF2000CDCF8AB
:101D70000030C3F3022E8EF00704042C28BF042485
:101D8000BEF103034FF0FF3E0EFA04F438BF002308
:101D9000A14399400EFA03F39A43114300F00F0256
:101DA00000F160430901043A03F5644362440028EA
:101DB00048BF02F10C03197010BD00004EF60C5123
:101DC000CEF200010A684FF6FF031A4060F30A22C0
:101DD00042F0806040F0FD7008607047002804BF4A
:101DE000012070472DE9F04381B042F20008C4F2AF
:101DF00002080446D8F800000D4600F007008142B2
:101E00000CD9D8F8000020F007002843C8F80000DB
:101E1000D8F8000000F00700A8426CD1206841F219
:101E200004098107C4F2020917D5410705D5D9F87D
:101E3000001041F4E061C9F80010010705D5D9F898
:101E4000001041F46051C9F80010D9F80010A268E0
:101E500021F0F0011143C9F80010C00742D1D8F8B1
:101E6000000000F0070085420CD2D8F8000020F0F6
:101E700007002843C8F80000D8F8000000F0070069
:101E8000A84238D12068410707D5D9F80010E26888
:101E900021F4E0611143C9F80010000708D5D9F812
:101EA0000000216920F4605040EAC100C9F8000038
:101EB000D9F8002002F00C00082841F20020C0F2FE
:101EC0007A004DD144F2CE23C2F38341C0F6000321
:101ED000595CD20338D440F60010C0F23D004843AC
:101EE0003EE000BF606859F8041C022808D00128B1
:101EF00026D1890306D4012001B0BDE8F08300BFDC
:101F00008901F8D5D9F8001021F003010843C9F878
:101F10000000FFF7E3FC064641F28837D9F80000DD
:101F2000616800F00C00B0EB810F98D0FFF7D6FC91
:101F3000801BB842F2D9032001B0BDE8F08300BF96
:101F40008907D8D5DEE700BFD9F8002044F2CC23BA
:101F5000C2F34042C0F600039A5C4843B0FBF2F083
:101F6000D9F8001044F2B422C1F30311C0F6000204
:101F7000515C40F20C0220FA01F140F20800C2F27A
:101F800000000068C2F200021160FFF7A5FE002009
:101F900001B0BDE8F083000040F20C0041F2040102
:101FA000C2F20000C4F202010068096844F2C422CF
:101FB000C1F30221C0F60002515CC8407047000026
:101FC00040F20C0041F20401C2F20000C4F202012E
:101FD0000068096844F2C422C1F3C221C0F60002BD
:101FE000515CC84070470000002804BF01207047C2
:101FF0002DE9F04182B00446007841F20006C007A6
:10200000C4F202060CD0706800F00C00042840F006
:1020100081803068800303D56068002800F0468125
:10202000207880071BD5706810F00C0F09D07068FD
:1020300000F00C00082840F087807068C00300F1B1
:1020400083803068800703D52069012840F02E8105
:102050003068616920F0F80040EAC1003060207803
:10206000000713D4207840072CD4E569002D00F038
:102070001881706800F00C00082840F0A780012D3E
:1020800040F00481012002B0BDE8F081A069002881
:1020900000F084800020C4F242200121C0F88014A6
:1020A000FFF71CFC054600BF706A800700F1B28094
:1020B000FFF714FC401B0228F6D9032002B0BDE84C
:1020C000F08100BFF0695FEAC00808D4F06940F011
:1020D0008050F061F06900F080500090009847F265
:1020E0000007C4F200073868C00549D4386840F4D6
:1020F00080703860FFF7F2FB054600BF3868C00506
:102100003ED4FFF7EBFB401B6428F7D9032002B055
:10211000BDE8F081706800F00C00082803D17068F9
:10212000C0033FF576AF61683068002900F00C818C
:10213000B1F5A02F00F00081B1F5803F40F01A8189
:1021400040F480301CE100BF2069002840F200000C
:10215000C4F2422000F0888001210160FFF7BEFB3D
:10216000054600BF306880073FF572AFFFF7B6FB4A
:10217000401B0228F6D9032002B0BDE8F08100BF61
:10218000E168306A002900F09D80052900F0928006
:10219000012940F0AF8040F00100B1E00020C4F21E
:1021A00042200021C0F88014FFF798FB054600BFCD
:1021B000706A80077FF556AFFFF790FB401B02283F
:1021C000F6D9032002B0BDE8F08100BF0027C4F2B9
:1021D000422700203866FFF781FB022D05460DD10E
:1021E0003068800140F1DE80FFF778FB401B022859
:1021F0004FF00300F4D902B0BDE8F08130688001EF
:102200004FD5FFF76BFB401B02284FF00300F5D9B9
:10221000F1E700BF40F20C00C2F20000006844F693
:10222000D351C1F26201A0FB0101480A019000BF35
:1022300000BF0198411E002801913FF413AF00BF79
:102240000198411E002801913FF40CAF00BF019896
:10225000411E002801913FF405AF00BF0198411EC7
:1022600000280191E4D1FDE600210160FFF736FB73
:10227000054600BF306880077FF5F1AEFFF72EFB03
:10228000401B02284FF00300F4D9B4E77068216ABC
:1022900000F480328A4209D1616A00F470108842E9
:1022A00004D1002002B0BDE8F08100BF012002B0DF
:1022B000BDE8F08140F004003062306A40F0010077
:1022C0001EE000BF20F001003062306A20F0040000
:1022D0003062FFF703FB054641F28837306A80071A
:1022E00020D5FFF7FBFA401BB8424FF00300F5D9A9
:1022F00081E700BF20F001003062306A20F0040066
:102300003062FFF7EBFA054641F28837306A800702
:1023100008D4FFF7E3FA401BB842F7D9032002B014
:10232000BDE8F081B8F1000F3FF59FAEF06920F0F5
:102330008050F06199E600BF40F480203060306842
:1023400040F480301CE000BF20F480303060306802
:1023500020F480203060FFF7C1FA05463068800322
:102360007FF55EAEFFF7BAFA401B64284FF003001A
:10237000F4D940E720F480303060306820F48020C9
:102380003060FFF7ABFA0546306880033FF548AE92
:10239000FFF7A4FA401B6428F6D9032002B0BDE879
:1023A000F08100BF206AB0F5803F05D17168A26856
:1023B00021F40031114371607168626A21F4741173
:1023C00011430843706001203866FFF787FA04461E
:1023D000306880013FF565AFFFF780FA001B0228E7
:1023E0004FF00300F4D906E7411E0020B0EB116F57
:1023F0001CBF012070474EF21002CEF20002516065
:102400004EF62351CEF20001F0230B7007219060AD
:1024100011607047002804BF0120704710B50446C2
:1024200090F8410028B9002084F84000204600F0D0
:1024300063F8242084F841002068D4E90212C368BC
:1024400023F40053C360036923F440531A43026129
:10245000D4E904231143C268194341F20C639A433F
:102460001143C1604169A26921F44071114343F6EF
:102470000002C4F201029042416103D0FFF78CFDDB
:1024800002E000BFFFF79CFDD4E900231921484377
:102490009900B0FBF1F048F21F5CC5F2EB1CA0FB09
:1024A0000C314FF69C734909C0F6FF7301FB030022
:1024B000322303EB0010A0FB0C03F02000EA5310C2
:1024C00000EB0110C3F34311084490601069202110
:1024D00020F490401061506920F02A005061D068CB
:1024E00040F40050D0600020606484F8411084F80B
:1024F0004210606310BD000070B586B040F6000465
:10250000C4F20104006804F5405100268842059693
:10251000CDE90366029601D006B070BD41F2180005
:10252000C4F20200016802AD41F48041016001681B
:1025300001F4804101910199016841F004010160B9
:102540000068294600F00400019001984FF40070E3
:10255000029002200390032005902046FFF7B0F878
:102560004FF48060CDE90206204629460496FFF725
:10257000A7F806B070BD00002DE9F04381B0044615
:1025800090F84200202809D1884600294FF0010028
:1025900018BF002A06D101B0BDE8F083022001B0C7
:1025A000BDE8F083002022211D46606484F84210BB
:1025B00020631646FFF792F9A685E685A1680746CF
:1025C000B1F5805F02D12069002851D046464FF016
:1025D0000008E08D00284FD005F101090CE000BF94
:1025E000406800266FF35F2028F8020BE08D013869
:1025F000E085E08D00283FD020680168890617D467
:10260000B9F1000F22D0002D00F0CA80FFF766F963
:10261000C01BA84200F2BC802068C168490744BFC3
:1026200001685FEA01712FD401688906EED500BF09
:10263000002ED5D0A168B1F5805F15D009B9216908
:1026400091B1406800F07F000FE000BF016889068B
:10265000EED4016889065CBF01685FEA8161E7D456
:1026600001688906F2D5E3E7406806F8010BBDE78B
:102670000026E08D0028AFD10020202184F84210F0
:1026800001B0BDE8F08300BF002100910168009116
:1026900040680090009800BF206850E8030F216850
:1026A00020F4907041E80302BAB3206850E8030FA9
:1026B000216820F4907041E8030272B3206850E86A
:1026C000030F216820F4907041E803022AB32068C8
:1026D00050E8030F216820F4907041E80302002ABB
:1026E000DAD11AE0206850E8050F216820F00100D7
:1026F00041E80502DAB1206850E8050F216820F0B2
:10270000010041E8050292B1206850E8050F2168F8
:1027100020F0010041E805024AB1206850E8050FA9
:10272000216820F0010041E80502002ADAD1206B7F
:10273000012824D1206850E8030F216820F0100000
:1027400041E80302DAB1206850E8030F216820F065
:10275000100041E8030292B1206850E8030F21689D
:1027600020F0100041E803024AB1206850E8030F4E
:10277000216820F0100041E80302002ADAD120206D
:1027800084F84200002008212063616484F840003E
:102790000320202184F8421001B0BDE8F08300BF7F
:1027A000FFF79CF8F4E70000FEE7000070B503684F
:1027B000044653F8140F400711D40E46481C29D084
:1027C00086BB00BF1868400527D4FFF787F8236849
:1027D00053F8140F400737D518684007F2D500208A
:1027E00070BD00BF18684007F9D41868400514D4BC
:1027F00018684007F3D4186840050ED418684007DD
:10280000EDD41868400508D4186840074FF0000060
:1028100048BF70BD18684005E4D56FF4806018604B
:10282000042012E0154603E053F8140F4007D6D4F5
:1028300018684005F1D4FFF751F8401B2368B042F7
:10284000F2D958694007EFD42020002120222163CB
:1028500084F83D2084F83E10226C1043206401204F
:1028600084F83C1070BD00002DE9F0410546006879
:102870001E46144601F47F0201338FB242D0DDF8C8
:102880001880B2F5803F40F0878040693840C01B17
:10289000B0FA80F04009844240F0C8804EB924E08C
:1028A00040693840C01BB0FA80F04009844240F0D3
:1028B000BD80FFF713F8A0EB08012868B142EFD9FB
:1028C00041693940C91BB1FA81F149098C42E7D10C
:1028D0009BE000BF40693840C01BB0FA80F040095F
:1028E00084424FF0000040F0A280FEF7F7FF286816
:1028F00041693940C91BB1FA81F149098C42E9D1DA
:1029000083E000BFB2F5803F24D100BF4169394068
:10291000C91BB1FA81F149098C4240F087804169B5
:102920003940C91BB1FA81F149098C4240F07E80DF
:1029300041693940C91BB1FA81F149098C4275D10D
:1029400041693940C91BB1FA81F149098C42DDD096
:102950006CE000BF81693940C91BB1FA81F14909B6
:102960008C4263D181693940C91BB1FA81F14909AF
:102970008C425BD181693940C91BB1FA81F14909A7
:102980008C4253D181693940C91BB1FA81F149099F
:102990008C42DFD04AE000BF80693840C01BB0FAEB
:1029A00080F04009844241D146B923E08069384033
:1029B000C01BB0FA80F04009844237D1FEF78EFF89
:1029C000A0EB08012868B142F0D981693940C91BE0
:1029D000B1FA81F149098C42E8D116E080693840AA
:1029E000C01BB0FA80F0400984424FF0000018BFCD
:1029F000BDE8F081FEF772FF286881693940C91B84
:102A0000B1FA81F149098C42E8D1002020212863E4
:102A100085F83D1085F83E00296C41F020012964BD
:102A200085F83C000120BDE8F08100BF0020BDE832
:102A3000F0810000F0B581B0044600681D4643698E
:102A40008FB203EA0701B94202D1002001B0F0BD04
:102A50004169164601323CD0490512D47EB300BF0D
:102A6000FEF73CFF411B2068B14203D94169394060
:102A7000B9422BD141693940B942E6D04169490593
:102A8000EED5016841F4007101606FF4806141612D
:102A9000042000212022216384F83D2084F83E1088
:102AA000226C1043206484F83C10012001B0F0BD7A
:102AB00041693940B942C8D041694905E1D4FEF7BE
:102AC0000DFF206841693940B942F1D02020E0E78C
:102AD00041694905D5D441693940B942B5D0416908
:102AE0004905CED441693940B942AED04169490562
:102AF000C7D441693940B942A7D041694905C0D41A
:102B000041693940B942E3D19FE7000070B50368DD
:102B1000044653F8140F000611D40E46481C29D061
:102B200086BB00BF1868400527D4FEF7D7FE236890
:102B300053F8140F000637D518680006F2D50020A8
:102B400070BD00BF18680006F9D41868400514D499
:102B500018680006F3D4186840050ED418680006FB
:102B6000EDD41868400508D4186800064FF000003E
:102B700048BF70BD18684005E4D56FF480601860E8
:102B8000042012E0154603E053F8140F0006D6D4D3
:102B900018684005F1D4FEF7A1FE401B2368B0423F
:102BA000F2D958690006EFD42020002120222163A9
:102BB00084F83D2084F83E10226C104320640120EC
:102BC00084F83C1070BD0000FEE70000FEE7000046
:102BD0007047000070470000FFF75CB870470000C6
:102BE000FEE70000B0B582B040F60C0040F23814A9
:102BF000C3F63C00C2F200040190642501AA2046FD
:102C00004E2104230095FEF721FF3220FEF744FDFC
:102C100040F60C00C2F62C00019001AA20464E217D
:102C200004230095FEF712FF3220FEF735FD40F633
:102C30000C00C6F66C00019001AA20464E21042328
:102C40000095FEF703FF3220FEF726FD40F60C004C
:102C5000CCF6CC00019001AA20464E210423009519
:102C6000FEF7F4FE3220FEF717FD42F62C00C8F600
:102C70008C00019001AA20464E2104230095FEF706
:102C8000E5FE3220FEF708FD48F68C00C0F60C0089
:102C9000019001AA20464E2104230095FEF7D6FE9E
:102CA00002B0B0BD92B0FFF703F808AC201D24219C
:102CB000FDF782FB0220089001200C9010200D905F
:102CC000002520460F95FFF78FF928B1EFF310800C
:102CD00072B600BFFEE700BF0F20CDE9030503A8D1
:102CE0000021CDE905550795FFF778F820B1EFF3FE
:102CF000108072B6FEE700BF002441F21800CDE953
:102D00000A44CDE90844C4F20200016840F60046D6
:102D100041F0080101600168C4F2010601F00801F8
:102D2000039103990168002241F0040101600068E9
:102D30004FF4804100F004000390039830464FF4B4
:102D40008045FEF7C5FD0120CDE9090402200B9066
:102D500008A930460895FEF7B3FC40F23810A6F5F6
:102D60003841C2F2000048F2A062C0F2010280E8DD
:102D70001600C0E90345C0E90544C0E90744FEF771
:102D8000B3FD28B1EFF3108072B600BFFEE700BFBD
:102D900040F2700BC2F2000B06F53051584640F875
:102DA0001C1F4FF416510C22C0E90114C0E9034462
:102DB000C0E90524C461FFF72DFB28B1EFF31080B3
:102DC00072B600BFFEE700BFFFF70CFF40F60C0035
:102DD00040F23814C1F61C00C2F2000408AD08909D
:102DE000642620464E212A4604230096FEF72EFE36
:102DF0000220FEF751FC48F68C00C4F64C00089007
:102E000008AA20464E2104230096FEF71FFE40F23A
:102E1000D40246F25710C2F20002C7F269404FF0E6
:102E20002E31C2E900012E201081571E5720029733
:102E300020F00F01000101F10D0209318DF8211080
:102E400000F10D0109308DF820208DF822108DF849
:102E5000230020464E212A4604230096FEF7F6FD65
:102E6000B87801370028E3D14FF47A70FEF714FCEC
:102E700040F60C0040F23816C1F61C00C2F2000603
:102E800008AF08904FF0640A30464E213A460423BA
:102E9000CDF800A0FEF7DAFD0220FEF7FDFB0BF1F6
:102EA0001C090BF1120516E0DBF800000021C4F24A
:102EB0000C2101F022F80246002840F60040C4F23E
:102EC00001004FF4804118BF0122FEF701FD00BF51
:102ED0000A20FEF7E1FB4846294609226423FFF752
:102EE0004BFB0028F4D100200BF108088BF81B00E5
:102EF00028464146FDF788FA0028E9D04046294691
:102F0000FDF736FA40F60C00C1F61C00089030467A
:102F10004E213A460423CDF800A0FEF797FD02208B
:102F2000FEF7BAFB28462C21FDF718FA002800F01E
:102F3000978044F2DE212846C0F60001FDF708FA2A
:102F400028B100F0B1FD00F057FECBF8000044F2CC
:102F5000DE210020C0F60001FDF7FAF928B100F0EB
:102F6000A3FD00F049FECBF8040048F68C00C0F643
:102F70000C00089030464E213A460423CDF800A0BC
:102F8000FEF764FDDBF8000000F07EFF40F2D404A1
:102F9000C2F2000402460B46204652A1FDF73CF95E
:102FA0002078F0B1029C00BF20F00F01000101F178
:102FB0000D0209318DF8211000F10D0109308DF855
:102FC00020208DF822108DF8230030464E213A46FD
:102FD0000423CDF800A0FEF739FDA07801340028C5
:102FE000E2D14CF6CC00C0F60C00089030464E21E1
:102FF0003A460423CDF800A0FEF728FDDBF80400D4
:1030000000F042FF40F2D404C2F2000402460B4634
:10301000204639A1FDF700F9207800283FF444AF9D
:10302000029C00BF20F00F01000101F10D020931E7
:103030008DF8211000F10D0109308DF820208DF858
:1030400022108DF8230030464E213A460423CDF855
:1030500000A0FEF7FBFCA07801340028E2D123E7B2
:1030600048F68C00C2F62C00089030464E213A46B5
:103070000423CDF800A0FEF7E9FC40F2D40046F6A8
:103080004C71C2F20000C2F26901016046F26311A4
:10309000C2F26D01416046F66211C6F6656181605B
:1030A0000021029C01734C2020F00F01000101F16E
:1030B0000D0209318DF8211000F10D0109308DF854
:1030C00020208DF822108DF8230030464E213A46FC
:1030D0000423CDF800A0FEF7B9FCA0780134002845
:1030E000E2D1F5E64E6869657420646F3A20252EBA
:1030F0003166274300000000446F20616D3A2025AF
:103100002E306620252500005FEA400C08BF91F0B4
:10311000000F4FEA8C234FEAC12243EA51514FEA94
:103120001C5018BF00F5F0404FEA300018BF41F0C6
:1031300000415FEA6C5C00F02980BCF1FF3F08BFF2
:1031400040F080407047130C06BF12044FF0100C83
:103150004FF0000C130E04BF12020CF1080C130FF9
:1031600004BF12010CF1040C930F04BF92000CF188
:10317000020CD30F04BF52000CF1010C11464FF0AA
:103180000002A0F11F00A0EB0C00704711F0004FEF
:1031900008BF704731F000413FF4D5AF0B0C06BFBC
:1031A00009044FF0100C4FF0000C0B0E04BF090285
:1031B0000CF1080C0B0F04BF09010CF1040C8B0F70
:1031C00004BF89000CF1020CCB0F04BF49000CF1C5
:1031D000010CCCF1200322FA03F341EA030102FAC5
:1031E0000CF2A0EB0C0000F10100704723F07F47C8
:1031F00020F07F4C80EA030000F00040ACEB0703B6
:1032000003F57C5303F1FF032DE9804909B44FEA2C
:10321000144324EA03484FEA154B25EA0B4E0FF2FC
:10322000042606EB13273E7803FB0667C7F5000765
:1032300007FB06F64FEAD64606F102064FEA543778
:1032400007FB066CCCF1005C4FEA1C472CEA074CEC
:103250000CFB06F507FB06F404EB15464FEA961641
:1032600049085FEA320234BF00204FF000404FEAC5
:10327000D13706FB07FC4FEA1C4C0CFB0BF7D21BAB
:1032800003FB0CF761EB07010CFB0EF7B0EB0740FB
:1032900072EB17420CFB08F734BFA2EB0742B2EB0C
:1032A000074261EB17414FEA0C444FEA910706FBD6
:1032B00007FC4FEA1C4C0CFB0BF7B0EBC74072EB62
:1032C000573203FB0CF734BFA2EBC742B2EBC74245
:1032D00061EB57310CFB0EF7B0EBC70072EB577286
:1032E0000CFB08F734BFA2EBC702B2EBC70261EBDD
:1032F00057714FEA816141EA92114FEA826242EAD4
:1033000090124FEA806004EBCC04039F4FEAD13760
:1033100006FB07FC4FEA1C4C0CFB0BF7D21B03FB14
:103320000CF761EB07010CFB0EF7B0EB074072EBFB
:1033300017420CFB08F734BFA2EB0742B2EB07427F
:1033400061EB17414FEA8C5504EB9C244FEA91073F
:1033500006FB07FC4FEA1C4C0CFB0BF7B0EBC7401D
:1033600072EB573203FB0CF734BFA2EBC742B2EB50
:10337000C74261EB57310CFB0EF7B0EBC70072EBA5
:1033800057720CFB08F734BFA2EBC702B2EBC702BF
:1033900061EB57714FEA816141EA92114FEA826213
:1033A00042EA90124FEA806015EB4C2544F100048C
:1033B0004FEAD13706FB07FC4FEA1C4C0CFB0BF71E
:1033C000D21B03FB0CF761EB07010CFB0EF7B0EB14
:1033D000074072EB17420CFB08F734BFA2EB074221
:1033E000B2EB074261EB17414FEA813141EA92416A
:1033F0004FEA823242EA90424FEA80304FEA0C763E
:1034000015EB1C1544F1000448EA03434EEA0B484F
:103410004FF0000EB2EB080C71EB030724BF6246BD
:1034200039464EEB0E0E4FF0000B00185241494149
:103430004BEB0B0BB2EB080C71EB03077BF1000BB2
:1034400024BF624639464EEB0E0E4FF0000B0018BB
:10345000524149414BEB0B0BB2EB080C71EB0307EC
:103460007BF1000B24BF624639464EEB0E0E51EA4B
:10347000020718BF46F0010616EB0E7655F1000262
:1034800054F1000103D5BDE88901BDE80088BDE81D
:103490008901BDE80048B619524141EB0101A3F191
:1034A0000103704780807F7E7D7C7B7A7978777698
:1034B00076757473727171706F6E6E6D6C6C6B6A11
:1034C0006A696868676666656464636362616160AF
:1034D000605F5F5E5E5D5D5C5C5B5B5A5A5959582C
:1034E0005857575656555555545453535252525196
:1034F000515050504F4F4F4E4E4D4D4D4C4C4C4BEC
:103500004B4B4A4A4A494949484848474747474632
:10351000464645454544444444434343434242426E
:103520004241414110B546EA06464FEA164646EA90
:1035300042564FEAD22242EA41524FEAD121A3F544
:103540007053A3F1010300F02FF820F0004000F0C9
:10355000004700F1020CBCF5006F01EB0050114672
:1035600040EA070000D210BDBAF1000F0AD01CB526
:1035700003B44FF004004FF004014FF000000FBC03
:10358000BDE810404FF00001BBF1010FB9BF044886
:103590004FF0FF310348002140EA070010BD00BF93
:1035A000FFFFEF7F0000F07F9C46002B30D47700B8
:1035B0002BD04FEA37071CB503B44FF010004FF083
:1035C0001001BAF1000F06D0BCF1000FDCBF40F0D3
:1035D000080040F008014FF000000FBCBDE81040AB
:1035E0000BF1010BBBF1010F08BF5FEA170722BF08
:1035F00012F1010211F101014FF0004143F100030A
:1036000000F0004043EA00007047F9D35708D0E7C4
:1036100046EA06464FEA164613F1400F1FDD13F146
:10362000200FDFBF16430A46002120335B42BED085
:10363000C3F1200746EA06464FEA164602FA07F7A4
:1036400046EA070622FA03F2C3F1200701FA07F758
:1036500042EA070221FA03F14FF00003A7E746EA26
:10366000020646EA06464FEA164646EA0106BCBF8F
:1036700046EA0646360C4FF000034FF000024FF0CA
:10368000000194E72DE9804C70B49A46934691E886
:10369000380007C831EA400C48BF34EA430C03D570
:1036A000FFF7A4FDFFF780FFF0BCBDE8008C2DE91B
:1036B000804C70B49A46934691E8380007C831EAC6
:1036C000400C48BF34EA430C03D5FFF78FFDFFF7EA
:1036D00029FFF0BCBDE8008C2DE9804C70B49A46FF
:1036E000934691E8380007C810F0804F08BF13F0E8
:1036F000804F03D100F01AF8FFF756FFF0BCBDE889
:10370000008C2DE9804C70B49A46934691E83800BD
:1037100007C810F0804F08BF13F0804F03D100F0AE
:1037200005F8FFF7FFFEF0BCBDE8008C20F07F47F6
:1037300023F07F4C80EA030000F0004007EB0C030D
:10374000A3F57C53A3F1FE0392F0000F00F0B380C9
:1037500095F0000F00F077802DE901494FEA114004
:1037600021EA00484FEA144624EA064700FB06FC1B
:1037700008FB06F607FB08F818EB06484CEB164C5E
:1037800000FB07F718EB07484CEB17404FEA124BCA
:1037900022EA0B4E4FEA154625EA06470BFB06FCCC
:1037A0000EFB06F607FB0EFE1EEB064E4CEB164C10
:1037B0000BFB07F71EEB074E4CEB174B18EB0B08F8
:1037C00040F1000018EB0E0B58EB000840F1000030
:1037D0008F1A4FF000014FF000063CBFC943661B33
:1037E00014BFB5EB040C00213CBFC943F61B4FEAE4
:1037F000174427EA04454FEA1C472CEA074C04FB10
:10380000076205FB07F70CFB05F616EB074642EBD4
:10381000174204FB0CFC16EB0C4642EB1C421BEB64
:10382000060658EB020241414EEA8E0E46EA9E061B
:1038300001D5BDE80189B619524141EB0101A3F15F
:103840000103BDE801894FEA144524EA05464FEA21
:10385000114721EA074C05FB07F406FB07F70CFBB1
:1038600006F111EB074144EB174405FB0CFC11EB8F
:103870000C4144EB1C444FEA124722EA074C05FB7B
:1038800007F206FB07F70CFB06F616EB074642EBC2
:10389000174205FB0CFC16EB0C4642EB1C456A1864
:1038A00054F1000148BF7047B619524141EB010184
:1038B000A3F10103704795F0000F37D04FEA114292
:1038C00021EA02464FEA144724EA074C02FB07F1BB
:1038D00006FB07F70CFB06F414EB074441EB17411A
:1038E00002FB0CFC14EB0C4441EB1C414FEA154766
:1038F00025EA074C02FB07F506FB07F70CFB06F66B
:1039000016EB074645EB174502FB0CFC16EB0C4685
:1039100045EB1C42121951F1000148BF7047B6191E
:10392000524141EB0101A3F1010370474FEA1445F5
:1039300024EA05464FEA114721EA074C05FB07F147
:1039400006FB07F70CFB06F212EB074241EB1741AF
:1039500005FB0CFC12EB0C4251EB1C414FF0000636
:1039600048BF7047921841EB0101A3F10103704772
:10397000490050EAC12018BF04204A0D18BF40F08A
:10398000010040F2FF72B2EB515F08BF40F002004D
:10399000012808BF0520704740F2013200204FF097
:1039A000E04100F0F1BB0000024A0020110700F0E6
:1039B000EBBB000001FDFFFF10B50446D1E900019B
:1039C00000F002F8206010BDF8B504460D466A46C6
:1039D00000F080F800987E30009000281EDC002265
:1039E00013462046294600F04DF917D0002140F635
:1039F00008004FF0000006462046294600F0FCF87B
:103A0000044640F6080006EA00014FF0000034F0DA
:103A1000004004BF0220FCF73FFD29E00098FF288A
:103A200028DB002108464FF0000000F44006002289
:103A300013462046294600F0F1F98CBF00250125E8
:103A40000220FCF729FD4FF0FF4446B1002D0CBFCA
:103A50004FF400004FF48000B04218BF084C04211E
:103A600008464FF00000002D04BF84F00040F8BD70
:103A70002046F8BD20462946BDE8F84000F0BCB815
:103A8000FFFF7F7F10B504460A46D4E900031946BC
:103A900000F04CF8C4E9000110BD30380A2801D20A
:103AA000012070470020704730B583B00446FCF712
:103AB000EEFC05460020CDE9000002460123214628
:103AC0006846FCF73DFF2846FCF7E6FCDDE900010F
:103AD00003B030BD10B5144600222260114A21F017
:103AE00000439342A8BF10BD53EA000208BF10BDB7
:103AF000B3F5801FA8BF226807DA362200F044FB26
:103B00006FF0350221F000432260DFF81CC06FF334
:103B10001E510CEB23531A4441F0FF5141F0005168
:103B2000226010BD0000F07F02FCFFFF2DE9F04194
:103B300006460C4640F2FF75174635EA14502BD066
:103B400000221346304600F09DF825D03A46304614
:103B5000214600F019FB06460C4635EA145010D0F9
:103B600000221346304600F08DF815D10220FCF7F4
:103B700093FCFFF719FF0A46214662F31E01BDE8D8
:103B8000F0810220FCF788FCFFF706FF0A46214679
:103B900062F31E01BDE8F08130462146BDE8F081A8
:103BA00010B500290AD00878002807D005487844C5
:103BB000FCF72AFC002801D0002010BD0248784400
:103BC00010BD0000620700005A07000010B5002970
:103BD0000AD00878002807D005487844FCF714FC80
:103BE000002801D0002010BD0248784410BD00001C
:103BF000520700004A07000021F0004201F0004394
:103C0000A2F16052B2F5801F28BFD2F17F6C0BD9B0
:103C10005FEA001C43EAC20242EB507018BF7047D3
:103C200028BF20F001007047B2F5801FBCBF1846C6
:103C300070474FEA410C1CF5001F02D2084600F005
:103C400067BA70B500F096F800000089FFF7F6BF7C
:103C50004FF00040A0F580007047000002494FF08F
:103C6000000000F05FBA00BF0000F87F491058BFA5
:103C7000C1F140415B1058BFC3F140438B42EFF3A9
:103C80000080704751EA030C17D41CF5801F58BF01
:103C9000BCF5801F00F10680994218BF704708BF2D
:103CA0009042704707D711F5801F58BF13F5801F4A
:103CB00019D499427047894270471CF5801F08D576
:103CC000BCF5801FF7D58B4218BF704708BF8242F2
:103CD00070474FF4001C1CEB410F38BF1CEB430F27
:103CE00001D28B42704770B500F044F8922449002D
:103CF0004FF000514FF08053FFF7B8BF51EA030C6B
:103D000017D41CF5801F58BFBCF5801F00F106803A
:103D1000994218BF704708BF9042704707D711F506
:103D2000801F58BF13F5801F19D4994270478942EC
:103D300070471CF5801F08D5BCF5801FF7D58B4256
:103D400018BF704708BF824270474FF4001C1CEB3D
:103D5000410F38BF1CEB430F01D28B42704770B547
:103D600000F008F8922449004FF000514FF08053C2
:103D7000FFF77CBF0EF1020E2EF0030E5EF8046B0F
:103D8000364205D4012A43EB030515F5001F12D86E
:103D9000012841EB010C1CF5001F0CD80ED14FEA95
:103DA000D17C0CEB4C0C0CF1020C15F5001F08BF7C
:103DB0004CEBD37C04E04FF0080C01E04FEAD37CDD
:103DC0000CEB4C0526FA05F606F00706B6F1040CD6
:103DD00006D20EEB860CBDE870404CF0010C60473B
:103DE000DFE80CF0090B02024FF00041A1F50021C1
:103DF0004FF0000070BD19461046012851EB010438
:103E000018BFD4F5001484BF002001F0004170BD3C
:103E10000808A0F500114FEA3101704753EA010C80
:103E200017D41CF5801F58BFBCF5801F00F1068019
:103E30008B4218BF704708BF8242704707D713F5FF
:103E4000801F58BF11F5801F19D48B4270479B42C9
:103E500070471CF5801F08D5BCF5801FF7D5994227
:103E600018BF704708BF904270474FF4001C1CEB0E
:103E7000430F38BF1CEB410F01D2994270470FB47A
:103E80000CBC03BCFFF76BBF43004FEAD30C4FEAF7
:103E90003C0C43401FBF40070CF1605113F0FE4F34
:103EA00070471CF0006F03D10CF0004100207047F8
:103EB0000CF0004343EA507040EACC0010B500F02B
:103EC000E1F800BF000000924FEA0001FFF7A0BF39
:103ED0004FF00041A1F500214FF00000704710B5F0
:103EE00000F034F80CBF0120002010BD10B500F028
:103EF0002DF814BF0120002010BD10B500F05AF8B5
:103F00008CBF0120002010BD10B500F053F82CBF6D
:103F10000120002010BD10B500F080F894BF0120F2
:103F2000002010BD10B500F079F834BF012000204A
:103F300010BD401058BFC0F14040491058BFC1F1FA
:103F400040418142EFF300807047000050EA010CCD
:103F500000F113801CF5000F58BFBCF5000F01D411
:103F60008842704707D710F5000F58BF11F5000FB2
:103F700015D488427047894270471CF5000F04D55C
:103F8000BCF5000FF7D5814270474FF0807C1CEBE9
:103F9000400F38BF1CEB410F01D28142704710B572
:103FA00000F070F8922449004FF000504FF080511B
:103FB000FFF7BFBF50EA010C00F113801CF5000FA2
:103FC00058BFBCF5000F01D48842704707D710F5E1
:103FD000000F58BF11F5000F15D488427047894271
:103FE00070471CF5000F04D5BCF5000FF7D58142D2
:103FF00070474FF0807C1CEB400F38BF1CEB410F2B
:1040000001D28142704710B500F03CF8922449007B
:104010004FF080504FF00051FFF78BBF50EA010C7A
:1040200000F113801CF5000F58BFBCF5000F01D440
:104030008842704707D710F5000F58BF11F5000FE1
:1040400015D488427047894270471CF5000F04D58B
:10405000BCF5000FF7D5814270474FF0807C1CEB18
:10406000400F38BF1CEB410F01D28142704710B5A1
:1040700000F008F8922449004FF000504FF08051B2
:10408000FFF757BF0EF1020E2EF0030E5EF8044B41
:10409000244204D44FEA4102B2F17F4F11D84FEAD3
:1040A0004003B3F17F4F0CD80ED14FEAD07C0CEB1C
:1040B0004C0C0CF1020CB2F17F4F08BF4CEBD17CE1
:1040C00004E04FF0080C01E04FEAD17C0CEB4C030C
:1040D00024FA03F404F00704B4F1040C06D20EEB46
:1040E000840CBDE810404CF0010C6047DFE80CF098
:1040F000070802024FF00040A0F5800010BD0846FE
:10410000420018BFD2F1807288BF00F0004010BD9D
:10411000FF2141EAD050C00570474FF000007047C2
:10412000FCF798BA0CF00F03092B08BF082000F029
:104130005F800A2B0BD0082B18BF704708BF1CF0FC
:10414000400F0AD04FF000004FF0000170471CF004
:10415000400F18BF4FF0004070471CF0100F08D000
:1041600000F07F4220F0704342EAD3014FEA4370EF
:10417000704700F0604021F07F4242EA000201F007
:104180007F4040EA727070474FF0FF0C4CF4E06CD7
:104190001CEA11531CBF9CEA030C9445C2BFDA42CF
:1041A00001EB02517047002B0DD0BCF1000F0FD076
:1041B00001F00041002AA4BF41F0E04141F07F61DD
:1041C0004FF00000704701F000414FF000007047D1
:1041D00050EA01334FF09B0C18BF4CF0806C7FF419
:1041E0003DAD7047FCF7A2BEFDF712B8FDF7A0B9D0
:1041F0001CF4801F11D01CF4E02F03D06FEACC31E7
:10420000490070474FF04050EFF3008222F07042B7
:1042100042EA000282F3008870474FF000007047C6
:1042200002400000000000A0000000000540000067
:10423000000000C8000000000C4000000000409C8E
:1042400000000000194000000020BCBE000000007B
:1042500034400000BFC91B8E00000004B5400000C0
:10426000504BCFD06607E2CF010000006C41000048
:104270003E8251AADFEEA73401000000D9420000BF
:10428000DCB5A0E23A301F97FFFFFFFFB445000006
:10429000FD25A0C8E9A3C14FFFFFFFFFFF3F0000BE
:1042A0000000008000000000FF3F000000000080D0
:1042B00000000000000000000000000001020304F4
:1042C00006070809000000000102030401020203BE
:1042D0000405060708090A0B0C0D0E0F10102C0020
:1042E00040440008000000201000000050010008B9
:1042F00050440008100000208007000070010008F2
:10430000000000000000F07FFFFFFFFFFFFFEF7FD6
:104310001C00000043000000F8FFFFFF0C0000003D
:104320000E0000000F0000002E0000001001000031
:1043300043000000F8FFFFFF004040404040404085
:104340004040414141414140404040404040404068
:10435000404040404040404040050202020202020C
:10436000020202020202020202202020202020205B
:10437000202020020202020202029090909090906F
:10438000101010101010101010101010101010102D
:1043900010101010020202020202888888888888A1
:1043A000080808080808080808080808080808088D
:1043B0000808080802020202400000000000000095
:1043C00000000000000000000000000000000000ED
:1043D00000000000000000000000000000000000DD
:1043E00000000000000000000000000000000000CD
:1043F00000000000000000000000000000000000BD
:1044000000000000000000000000000000000000AC
:10441000000000000000000000000000000000009C
:10442000000000000000000000000000000000008C
:10443000000000000000000000000000000000007C
:1044400000000000010000001000000000127A00CF
:04000005080000ED02
:00000001FF
